{
  "_format": "hh-sol-artifact-1",
  "contractName": "FoxtrotPrivateSale",
  "sourceName": "contracts/FoxtrotPrivateSale.sol",
  "abi": [
    {
      "inputs": [
        {
          "internalType": "address",
          "name": "_companyVault",
          "type": "address"
        },
        {
          "internalType": "address",
          "name": "_busdContract",
          "type": "address"
        }
      ],
      "stateMutability": "nonpayable",
      "type": "constructor"
    },
    {
      "anonymous": false,
      "inputs": [
        {
          "indexed": false,
          "internalType": "address",
          "name": "tokenAddress",
          "type": "address"
        },
        {
          "indexed": false,
          "internalType": "uint256",
          "name": "tokenAmount",
          "type": "uint256"
        }
      ],
      "name": "ClaimToken",
      "type": "event"
    },
    {
      "anonymous": false,
      "inputs": [
        {
          "indexed": false,
          "internalType": "address",
          "name": "investor",
          "type": "address"
        },
        {
          "indexed": false,
          "internalType": "uint256",
          "name": "busdAmount",
          "type": "uint256"
        },
        {
          "indexed": false,
          "internalType": "uint256",
          "name": "tokenAmount",
          "type": "uint256"
        }
      ],
      "name": "Invest",
      "type": "event"
    },
    {
      "anonymous": false,
      "inputs": [
        {
          "indexed": true,
          "internalType": "address",
          "name": "previousOwner",
          "type": "address"
        },
        {
          "indexed": true,
          "internalType": "address",
          "name": "newOwner",
          "type": "address"
        }
      ],
      "name": "OwnershipTransferred",
      "type": "event"
    },
    {
      "anonymous": false,
      "inputs": [
        {
          "indexed": false,
          "internalType": "bool",
          "name": "isOpen",
          "type": "bool"
        }
      ],
      "name": "UpdatePrivateSaleStatus",
      "type": "event"
    },
    {
      "anonymous": false,
      "inputs": [
        {
          "indexed": false,
          "internalType": "address",
          "name": "who",
          "type": "address"
        }
      ],
      "name": "WhitelistDisabled",
      "type": "event"
    },
    {
      "anonymous": false,
      "inputs": [
        {
          "indexed": false,
          "internalType": "address",
          "name": "who",
          "type": "address"
        }
      ],
      "name": "WhitelistEnabled",
      "type": "event"
    },
    {
      "anonymous": false,
      "inputs": [
        {
          "indexed": false,
          "internalType": "address",
          "name": "addr",
          "type": "address"
        },
        {
          "indexed": false,
          "internalType": "uint256",
          "name": "amount",
          "type": "uint256"
        }
      ],
      "name": "WhitelistedAddressAdded",
      "type": "event"
    },
    {
      "anonymous": false,
      "inputs": [
        {
          "indexed": false,
          "internalType": "address",
          "name": "addr",
          "type": "address"
        }
      ],
      "name": "WhitelistedAddressRemoved",
      "type": "event"
    },
    {
      "inputs": [
        {
          "internalType": "address",
          "name": "addr",
          "type": "address"
        },
        {
          "internalType": "uint256",
          "name": "_amount",
          "type": "uint256"
        }
      ],
      "name": "addAddressToWhitelist",
      "outputs": [
        {
          "internalType": "bool",
          "name": "success",
          "type": "bool"
        }
      ],
      "stateMutability": "nonpayable",
      "type": "function"
    },
    {
      "inputs": [
        {
          "internalType": "address[]",
          "name": "addrs",
          "type": "address[]"
        },
        {
          "internalType": "uint256[]",
          "name": "_amount",
          "type": "uint256[]"
        }
      ],
      "name": "addAddressesToWhitelist",
      "outputs": [
        {
          "internalType": "bool",
          "name": "success",
          "type": "bool"
        }
      ],
      "stateMutability": "nonpayable",
      "type": "function"
    },
    {
      "inputs": [
        {
          "internalType": "address",
          "name": "",
          "type": "address"
        }
      ],
      "name": "amount",
      "outputs": [
        {
          "internalType": "uint256",
          "name": "",
          "type": "uint256"
        }
      ],
      "stateMutability": "view",
      "type": "function"
    },
    {
      "inputs": [
        {
          "internalType": "address",
          "name": "from",
          "type": "address"
        }
      ],
      "name": "availableOf",
      "outputs": [
        {
          "internalType": "uint256",
          "name": "",
          "type": "uint256"
        }
      ],
      "stateMutability": "view",
      "type": "function"
    },
    {
      "inputs": [
        {
          "internalType": "address",
          "name": "token",
          "type": "address"
        }
      ],
      "name": "balance",
      "outputs": [
        {
          "internalType": "uint256",
          "name": "",
          "type": "uint256"
        }
      ],
      "stateMutability": "view",
      "type": "function"
    },
    {
      "inputs": [],
      "name": "busdContract",
      "outputs": [
        {
          "internalType": "address",
          "name": "",
          "type": "address"
        }
      ],
      "stateMutability": "view",
      "type": "function"
    },
    {
      "inputs": [],
      "name": "changeClaimStatus",
      "outputs": [
        {
          "internalType": "bool",
          "name": "",
          "type": "bool"
        }
      ],
      "stateMutability": "nonpayable",
      "type": "function"
    },
    {
      "inputs": [],
      "name": "claim",
      "outputs": [],
      "stateMutability": "nonpayable",
      "type": "function"
    },
    {
      "inputs": [],
      "name": "claimStartAt",
      "outputs": [
        {
          "internalType": "uint256",
          "name": "",
          "type": "uint256"
        }
      ],
      "stateMutability": "view",
      "type": "function"
    },
    {
      "inputs": [],
      "name": "companyVault",
      "outputs": [
        {
          "internalType": "address",
          "name": "",
          "type": "address"
        }
      ],
      "stateMutability": "view",
      "type": "function"
    },
    {
      "inputs": [],
      "name": "disableWhitelist",
      "outputs": [],
      "stateMutability": "nonpayable",
      "type": "function"
    },
    {
      "inputs": [],
      "name": "enableWhitelist",
      "outputs": [],
      "stateMutability": "nonpayable",
      "type": "function"
    },
    {
      "inputs": [
        {
          "internalType": "address",
          "name": "from",
          "type": "address"
        }
      ],
      "name": "getClaimableAmountOfTokens",
      "outputs": [
        {
          "internalType": "uint256",
          "name": "",
          "type": "uint256"
        }
      ],
      "stateMutability": "view",
      "type": "function"
    },
    {
      "inputs": [
        {
          "internalType": "address",
          "name": "from",
          "type": "address"
        }
      ],
      "name": "historicalBalance",
      "outputs": [
        {
          "internalType": "uint256",
          "name": "",
          "type": "uint256"
        }
      ],
      "stateMutability": "view",
      "type": "function"
    },
    {
      "inputs": [
        {
          "internalType": "uint256",
          "name": "amount",
          "type": "uint256"
        }
      ],
      "name": "invest",
      "outputs": [],
      "stateMutability": "nonpayable",
      "type": "function"
    },
    {
      "inputs": [
        {
          "internalType": "address",
          "name": "from",
          "type": "address"
        }
      ],
      "name": "investorAccounting",
      "outputs": [
        {
          "internalType": "uint256",
          "name": "total",
          "type": "uint256"
        },
        {
          "internalType": "uint256",
          "name": "claimed",
          "type": "uint256"
        },
        {
          "internalType": "uint256",
          "name": "locked",
          "type": "uint256"
        },
        {
          "internalType": "uint256",
          "name": "available",
          "type": "uint256"
        },
        {
          "internalType": "uint256",
          "name": "busd",
          "type": "uint256"
        }
      ],
      "stateMutability": "view",
      "type": "function"
    },
    {
      "inputs": [],
      "name": "isClaimEnabled",
      "outputs": [
        {
          "internalType": "bool",
          "name": "",
          "type": "bool"
        }
      ],
      "stateMutability": "view",
      "type": "function"
    },
    {
      "inputs": [
        {
          "internalType": "address",
          "name": "investor",
          "type": "address"
        }
      ],
      "name": "isElegibleForFirstClaim",
      "outputs": [
        {
          "internalType": "bool",
          "name": "",
          "type": "bool"
        }
      ],
      "stateMutability": "view",
      "type": "function"
    },
    {
      "inputs": [],
      "name": "isPrivateSaleOpen",
      "outputs": [
        {
          "internalType": "bool",
          "name": "",
          "type": "bool"
        }
      ],
      "stateMutability": "view",
      "type": "function"
    },
    {
      "inputs": [],
      "name": "isWhitelistEnabled",
      "outputs": [
        {
          "internalType": "bool",
          "name": "",
          "type": "bool"
        }
      ],
      "stateMutability": "view",
      "type": "function"
    },
    {
      "inputs": [
        {
          "internalType": "address",
          "name": "to",
          "type": "address"
        },
        {
          "internalType": "uint256",
          "name": "amount",
          "type": "uint256"
        }
      ],
      "name": "manualInvest",
      "outputs": [],
      "stateMutability": "nonpayable",
      "type": "function"
    },
    {
      "inputs": [],
      "name": "openPrivateSale",
      "outputs": [],
      "stateMutability": "nonpayable",
      "type": "function"
    },
    {
      "inputs": [],
      "name": "owner",
      "outputs": [
        {
          "internalType": "address",
          "name": "",
          "type": "address"
        }
      ],
      "stateMutability": "view",
      "type": "function"
    },
    {
      "inputs": [],
      "name": "purgeNonSelledTokens",
      "outputs": [],
      "stateMutability": "nonpayable",
      "type": "function"
    },
    {
      "inputs": [
        {
          "internalType": "address",
          "name": "addr",
          "type": "address"
        }
      ],
      "name": "removeAddressFromWhitelist",
      "outputs": [
        {
          "internalType": "bool",
          "name": "success",
          "type": "bool"
        }
      ],
      "stateMutability": "nonpayable",
      "type": "function"
    },
    {
      "inputs": [
        {
          "internalType": "address[]",
          "name": "addrs",
          "type": "address[]"
        }
      ],
      "name": "removeAddressesFromWhitelist",
      "outputs": [
        {
          "internalType": "bool",
          "name": "success",
          "type": "bool"
        }
      ],
      "stateMutability": "nonpayable",
      "type": "function"
    },
    {
      "inputs": [],
      "name": "renounceOwnership",
      "outputs": [],
      "stateMutability": "nonpayable",
      "type": "function"
    },
    {
      "inputs": [
        {
          "internalType": "address",
          "name": "fxdToken",
          "type": "address"
        }
      ],
      "name": "setContractToken",
      "outputs": [
        {
          "internalType": "bool",
          "name": "",
          "type": "bool"
        }
      ],
      "stateMutability": "nonpayable",
      "type": "function"
    },
    {
      "inputs": [],
      "name": "setSaleEnd",
      "outputs": [],
      "stateMutability": "nonpayable",
      "type": "function"
    },
    {
      "inputs": [],
      "name": "showPrivateSaleStatus",
      "outputs": [
        {
          "internalType": "bool",
          "name": "",
          "type": "bool"
        }
      ],
      "stateMutability": "view",
      "type": "function"
    },
    {
      "inputs": [],
      "name": "tokenContract",
      "outputs": [
        {
          "internalType": "address",
          "name": "",
          "type": "address"
        }
      ],
      "stateMutability": "view",
      "type": "function"
    },
    {
      "inputs": [],
      "name": "totalBusdInvested",
      "outputs": [
        {
          "internalType": "uint256",
          "name": "",
          "type": "uint256"
        }
      ],
      "stateMutability": "view",
      "type": "function"
    },
    {
      "inputs": [
        {
          "internalType": "address",
          "name": "from",
          "type": "address"
        }
      ],
      "name": "totalBusdInvestedOf",
      "outputs": [
        {
          "internalType": "uint256",
          "name": "",
          "type": "uint256"
        }
      ],
      "stateMutability": "view",
      "type": "function"
    },
    {
      "inputs": [
        {
          "internalType": "address",
          "name": "from",
          "type": "address"
        }
      ],
      "name": "totalClaimedOf",
      "outputs": [
        {
          "internalType": "uint256",
          "name": "",
          "type": "uint256"
        }
      ],
      "stateMutability": "view",
      "type": "function"
    },
    {
      "inputs": [
        {
          "internalType": "address",
          "name": "from",
          "type": "address"
        }
      ],
      "name": "totalLockedOf",
      "outputs": [
        {
          "internalType": "uint256",
          "name": "",
          "type": "uint256"
        }
      ],
      "stateMutability": "view",
      "type": "function"
    },
    {
      "inputs": [
        {
          "internalType": "address",
          "name": "from",
          "type": "address"
        }
      ],
      "name": "totalOf",
      "outputs": [
        {
          "internalType": "uint256",
          "name": "",
          "type": "uint256"
        }
      ],
      "stateMutability": "view",
      "type": "function"
    },
    {
      "inputs": [
        {
          "internalType": "address",
          "name": "newOwner",
          "type": "address"
        }
      ],
      "name": "transferOwnership",
      "outputs": [],
      "stateMutability": "nonpayable",
      "type": "function"
    },
    {
      "inputs": [
        {
          "internalType": "address",
          "name": "",
          "type": "address"
        }
      ],
      "name": "whitelist",
      "outputs": [
        {
          "internalType": "bool",
          "name": "",
          "type": "bool"
        }
      ],
      "stateMutability": "view",
      "type": "function"
    },
    {
      "inputs": [
        {
          "internalType": "address",
          "name": "token",
          "type": "address"
        },
        {
          "internalType": "address",
          "name": "receiver",
          "type": "address"
        },
        {
          "internalType": "uint256",
          "name": "amount",
          "type": "uint256"
        }
      ],
      "name": "withdraw",
      "outputs": [
        {
          "internalType": "bool",
          "name": "",
          "type": "bool"
        }
      ],
      "stateMutability": "nonpayable",
      "type": "function"
    }
  ],
  "bytecode": "0x61010060405260086080526276a70060a0526658d15e1762800060c052670de0b6b3a764000060e0523480156200003557600080fd5b5060405162002322380380620023228339810160408190526200005891620001de565b620000633362000171565b600880546001600160a01b038085166001600160a01b03199283161790925560068054928416928216929092179091556007805490911690556000805460ff60a01b1916600160a01b1781556a1aad3400cd50ef8840000060095563634596089060059060016003811115620000e957634e487b7160e01b600052602160045260246000fd5b8152602001908152602001600020819055506301da9c00600560006003808111156200012557634e487b7160e01b600052602160045260246000fd5b60038111156200014557634e487b7160e01b600052602160045260246000fd5b815260208101919091526040016000205550506008805460ff60a01b1916600160a01b17905562000215565b600080546001600160a01b038381166001600160a01b0319831681178455604051919092169283917f8be0079c531659141344cd1fd0a4f28419497f9722a3daafe3b4186f6b6457e09190a35050565b80516001600160a01b0381168114620001d957600080fd5b919050565b60008060408385031215620001f1578182fd5b620001fc83620001c1565b91506200020c60208401620001c1565b90509250929050565b60805160a05160c05160e0516120be6200026460003960008181610a970152610ae6015260008181610ab801528181610b5c015261125a0152600061120601526000611b5501526120be6000f3fe608060405234801561001057600080fd5b506004361061023c5760003560e01c8063912c26731161013b578063d546da90116100b8578063e17039b81161007c578063e17039b814610516578063e3d670d714610529578063f2fde38b1461053c578063f30e5b261461054f578063f835a6861461056357600080fd5b8063d546da90146104c2578063d6b0f484146104d5578063d6d789b7146104dd578063d9caed12146104f0578063da9d6a801461050357600080fd5b8063b9f0bf66116100ff578063b9f0bf6614610461578063c68643ed14610481578063c76fa9b114610494578063cdfb2b4e146104a7578063cf9d101c146104af57600080fd5b8063912c2673146104085780639b19251a1461041b5780639f6c9fdc1461043e578063a6ad4c0114610451578063b6bd83ef1461045957600080fd5b8063554ab3d5116101c9578063715018a61161018d578063715018a61461039c578063715f47e9146103a45780638a77ba1a146103d15780638da5cb5b146103e45780638eaf1ee9146103f557600080fd5b8063554ab3d51461031357806355a373d61461034e57806357e348e7146103795780635edce784146103825780636ad73dcd1461038a57600080fd5b8063250835281161021057806325083528146102b2578063286dd3f5146102c55780632afcf480146102d857806345d92998146102ed5780634e71d92d1461030b57600080fd5b8062f3be3c14610241578063184d69ab1461026a5780631fbfcfd51461027e57806324953eaa1461029f575b600080fd5b60085461025590600160a01b900460ff1681565b60405190151581526020015b60405180910390f35b60005461025590600160a01b900460ff1681565b61029161028c366004611dd7565b61056b565b604051908152602001610261565b6102556102ad366004611e55565b6105a8565b6102556102c0366004611dd7565b610618565b6102556102d3366004611dd7565b610646565b6102eb6102e6366004611f1e565b6106d7565b005b60008052600560205260008051602061206983398151915254610291565b6102eb610c49565b610326610321366004611dd7565b610e65565b604080519586526020860194909452928401919091526060830152608082015260a001610261565b600754610361906001600160a01b031681565b6040516001600160a01b039091168152602001610261565b610291600a5481565b6102eb610ead565b600854600160a01b900460ff16610255565b6102eb610ed2565b6102556103b2366004611dd7565b6001600160a01b031660009081526003602052604090205460ff161590565b600854610361906001600160a01b031681565b6000546001600160a01b0316610361565b610291610403366004611dd7565b610ee4565b610291610416366004611dd7565b6110c7565b610255610429366004611dd7565b60016020526000908152604090205460ff1681565b61029161044c366004611dd7565b611118565b6102eb611138565b61025561118a565b61029161046f366004611dd7565b60026020526000908152604090205481565b6102eb61048f366004611e2c565b61124a565b6102916104a2366004611dd7565b6112da565b6102eb6112fa565b600654610361906001600160a01b031681565b6102916104d0366004611dd7565b611345565b6102eb611350565b6102916104eb366004611dd7565b611395565b6102556104fe366004611df1565b6113b4565b610255610511366004611e95565b611582565b610255610524366004611e2c565b611620565b610291610537366004611dd7565b6116bb565b6102eb61054a366004611dd7565b611735565b60085461025590600160a81b900460ff1681565b6102eb6117ae565b6001600160a01b03811660009081526004602090815260408083208380529091528082205460018352908220546105a29190611f9d565b92915050565b60006105b26117f4565b60005b82811015610611576105f58484838181106105e057634e487b7160e01b600052603260045260246000fd5b90506020020160208101906102d39190611dd7565b156105ff57600191505b8061060981612037565b9150506105b5565b5092915050565b60006106226117f4565b50600780546001600160a01b0319166001600160a01b03831617905560015b919050565b60006106506117f4565b6001600160a01b03821660009081526001602052604090205460ff1615610641576001600160a01b0382166000818152600160209081526040808320805460ff19169055600282528083209290925590519182527ff1abf01a1043b7c244d128e8595cf0c1d10743b022b03a02dffd8ca3bf729f5a910160405180910390a1506001919050565b600054600160a01b900460ff1615610749573360009081526001602052604090205460ff166107495760405162461bcd60e51b81526020600482015260196024820152781196110e88139bdd081bdb881d1a19481dda1a5d195b1a5cdd603a1b60448201526064015b60405180910390fd5b600854600160a01b900460ff166107a25760405162461bcd60e51b815260206004820152601b60248201527f4658443a20507269766174652053616c6520697320636c6f73656400000000006044820152606401610740565b6006546040516370a0823160e01b815233600482015282916001600160a01b0316906370a082319060240160206040518083038186803b1580156107e557600080fd5b505afa1580156107f9573d6000803e3d6000fd5b505050506040513d601f19601f8201168201806040525081019061081d9190611f36565b10156108645760405162461bcd60e51b81526020600482015260166024820152751196110e88125b9cdd59999a58da595b9d08109554d160521b6044820152606401610740565b600654604051636eb1769f60e11b815233600482015230602482015282916001600160a01b03169063dd62ed3e9060440160206040518083038186803b1580156108ad57600080fd5b505afa1580156108c1573d6000803e3d6000fd5b505050506040513d601f19601f820116820180604052508101906108e59190611f36565b10156109335760405162461bcd60e51b815260206004820152601a60248201527f4658443a204669727374206772616e7420616c6c6f77616e63650000000000006044820152606401610740565b600160005260056020527f1471eb6eb2c5e789fc3de43f8ce62938c7d1836ec861730447e2ada8fd81017b544210156109b85760405162461bcd60e51b815260206004820152602160248201527f4658443a20507269766174652053616c65206e6f7420737461727465642079656044820152601d60fa1b6064820152608401610740565b600054600160a01b900460ff1615610a92573360009081526002602090815260408083205460048352818420600385529092529091205411801590610a0c5750336000908152600260205260409020548111155b8015610a46575033600090815260026020908152604080832054600483528184206003855290925290912054610a43908390611f9d565b11155b610a925760405162461bcd60e51b815260206004820181905260248201527f4658443a20507269766174652053616c65207075726368617365206c696d69746044820152606401610740565b610adc7f00000000000000000000000000000000000000000000000000000000000000007f000000000000000000000000000000000000000000000000000000000000000061184e565b60095410610b54577f0000000000000000000000000000000000000000000000000000000000000000811015610b545760405162461bcd60e51b815260206004820152601a60248201527f4658443a204d696e696d756d20616d6f756e74203120425553440000000000006044820152606401610740565b6000610b80827f000000000000000000000000000000000000000000000000000000000000000061184e565b90506000600954118015610b9657508060095410155b610bda5760405162461bcd60e51b81526020600482015260156024820152744658443a205072697661746520636f6d706c65746560581b6044820152606401610740565b610be5338284611873565b600654600854610c04916001600160a01b039081169133911685611953565b60408051338152602081018490529081018290527f4ae4bd7655e0d350876a23cd90c4227b13db560e34435c6a488150a9c844bf5f9060600160405180910390a15050565b600054600160a01b900460ff1615610cb6573360009081526001602052604090205460ff16610cb65760405162461bcd60e51b81526020600482015260196024820152781196110e88139bdd081bdb881d1a19481dda1a5d195b1a5cdd603a1b6044820152606401610740565b600854600160a81b900460ff16610d0f5760405162461bcd60e51b815260206004820152601a60248201527f4658443a20436c61696d2073746174757320696e6163746976650000000000006044820152606401610740565b33600090815260046020908152604080832060018452909152902054610d775760405162461bcd60e51b815260206004820181905260248201527f4658443a20416c726561647920636c61696d656420796f757220746f6b656e736044820152606401610740565b3360009081526003602052604090205460ff1615610df75760008052600560205260008051602061206983398151915254421015610df75760405162461bcd60e51b815260206004820152601f60248201527f4658443a2043616e277420636c61696d2c203930206461797320636c696666006044820152606401610740565b6000610e02336119c4565b600754909150610e1c906001600160a01b03163383611aa2565b600754604080516001600160a01b039092168252602082018390527f5d425a3a6a3d5a60fbf147dc6659ce3dfeb701fc44fe90058c32783b8807c574910160405180910390a150565b6000806000806000610e76866110c7565b9450610e8186611395565b9350610e8c86611118565b9250610e9786610ee4565b9150610ea2866112da565b905091939590929450565b610eb56117f4565b600754600954610ed0916001600160a01b0316908190611aa2565b565b610eda6117f4565b610ed06000611ad7565b600080610ef083611b27565b9050610f15836001600160a01b031660009081526003602052604090205460ff161590565b8015610f2a5750600854600160a81b900460ff165b8015610f4d57506000805260056020526000805160206120698339815191525415155b15610f585792915050565b60008052600560205260008051602061206983398151915254421080610f94575060008052600560205260008051602061206983398151915254155b15610fa25750600092915050565b60056020527fa9bc9a3a348c357ba16b37005d7e6b3236198c0e939f4af8c5f19b8deeb8ebc0546000805260008051602061206983398151915254610fe79190611f9d565b42106110165750506001600160a01b031660009081526004602090815260408083206001845290915290205490565b60008161102285611395565b61102c9190611ff4565b60056020527fa9bc9a3a348c357ba16b37005d7e6b3236198c0e939f4af8c5f19b8deeb8ebc05460008052600080516020612069833981519152546110719042611ff4565b6001600160a01b0387166000908152600460209081526040808320600284529091529020546110a1908690611ff4565b6110ab9190611fd5565b6110b59190611fb5565b6110bf9190611ff4565b949350505050565b6001600160a01b03811660009081526004602052604081208160025b600381111561110257634e487b7160e01b600052602160045260246000fd5b8152602001908152602001600020549050919050565b6001600160a01b03811660009081526004602052604081208160016110e3565b6111406117f4565b6008805460ff60a01b1916600160a01b179055604051600181527fb1023bb7d3963077a0ad6953f7ae9a1f2205379063e2ddbaf121592302ee8fdf906020015b60405180910390a1565b60006111946117f4565b600854600160a81b900460ff16156111ee5760405162461bcd60e51b815260206004820152601a60248201527f4658443a20436c61696d20616c726561647920656e61626c65640000000000006044820152606401610740565b6008805460ff60a81b1916600160a81b17905561122b7f000000000000000000000000000000000000000000000000000000000000000042611f9d565b6000805260056020526000805160206120698339815191525550600190565b6112526117f4565b600061127e827f000000000000000000000000000000000000000000000000000000000000000061184e565b905061128b838284611873565b604080516001600160a01b0385168152602081018490529081018290527f4ae4bd7655e0d350876a23cd90c4227b13db560e34435c6a488150a9c844bf5f9060600160405180910390a1505050565b6001600160a01b03811660009081526004602052604081208160036110e3565b6113026117f4565b6000805460ff60a01b1916600160a01b1790556040513381527f7f93a45f70dde0bd08c45d334f84774f8aaa04a8b7c8349cf2837646445984db90602001611180565b60006105a282610ee4565b6113586117f4565b6000805460ff60a01b191690556040513381527fc0e106cf568e50698fdbde1eff56f5a5c966cc7958e37e276918e9e4ccdf8cd490602001611180565b6001600160a01b038116600090815260046020526040812081806110e3565b60006113be6117f4565b6007546001600160a01b038581169116141561142b5760405162461bcd60e51b815260206004820152602660248201527f4658443a20596f752063616e277420776974686472617720466f7874726f7420604482015265546f6b656e7360d01b6064820152608401610740565b6040516370a0823160e01b8152306004820152849083906001600160a01b038316906370a082319060240160206040518083038186803b15801561146e57600080fd5b505afa158015611482573d6000803e3d6000fd5b505050506040513d601f19601f820116820180604052508101906114a69190611f36565b10156114f45760405162461bcd60e51b815260206004820152601860248201527f4658443a20496e73756666696369656e7420616d6f756e7400000000000000006044820152606401610740565b60405163a9059cbb60e01b81526001600160a01b0385811660048301526024820185905282169063a9059cbb90604401602060405180830381600087803b15801561153e57600080fd5b505af1158015611552573d6000803e3d6000fd5b505050506040513d601f19601f820116820180604052508101906115769190611efe565b50600195945050505050565b600061158c6117f4565b60005b84811015611617576115fb8686838181106115ba57634e487b7160e01b600052603260045260246000fd5b90506020020160208101906115cf9190611dd7565b8585848181106115ef57634e487b7160e01b600052603260045260246000fd5b90506020020135611620565b1561160557600191505b8061160f81612037565b91505061158f565b50949350505050565b600061162a6117f4565b6001600160a01b03831660009081526001602052604090205460ff166105a2576001600160a01b0383166000818152600160208181526040808420805460ff1916909317909255600281529181902085905580519283529082018490527f84557e4edad8c3ddc7d5aea1d5e79730ad05eca55d1bce7456158ff9f49821b5910160405180910390a150600192915050565b6040516370a0823160e01b81523060048201526000906001600160a01b038316906370a082319060240160206040518083038186803b1580156116fd57600080fd5b505afa158015611711573d6000803e3d6000fd5b505050506040513d601f19601f820116820180604052508101906105a29190611f36565b61173d6117f4565b6001600160a01b0381166117a25760405162461bcd60e51b815260206004820152602660248201527f4f776e61626c653a206e6577206f776e657220697320746865207a65726f206160448201526564647265737360d01b6064820152608401610740565b6117ab81611ad7565b50565b6117b66117f4565b6008805460ff60a01b19169055604051600081527fb1023bb7d3963077a0ad6953f7ae9a1f2205379063e2ddbaf121592302ee8fdf90602001611180565b6000546001600160a01b03163314610ed05760405162461bcd60e51b815260206004820181905260248201527f4f776e61626c653a2063616c6c6572206973206e6f7420746865206f776e65726044820152606401610740565b600061185a8284611fb5565b61186c90670de0b6b3a7640000611fd5565b9392505050565b81600960008282546118859190611ff4565b9250508190555080600a600082825461189e9190611f9d565b90915550506001600160a01b038316600090815260046020908152604080832060038452909152812080548392906118d7908490611f9d565b90915550506001600160a01b03831660009081526004602090815260408083206001845290915281208054849290611910908490611f9d565b90915550506001600160a01b03831660009081526004602090815260408083206002845290915281208054849290611949908490611f9d565b9091555050505050565b6040516001600160a01b03808516602483015283166044820152606481018290526119be9085906323b872dd60e01b906084015b60408051601f198184030181529190526020810180516001600160e01b03166001600160e01b031990931692909217909152611b84565b50505050565b6000806119d083610ee4565b90506119f5836001600160a01b031660009081526003602052604090205460ff161590565b8015611a0a5750600854600160a81b900460ff165b15611a2a57336000908152600360205260409020805460ff191660011790555b6001600160a01b03831660009081526004602090815260408083206001845290915281208054839290611a5e908490611ff4565b90915550506001600160a01b038316600090815260046020908152604080832083805290915281208054839290611a96908490611f9d565b90915550909392505050565b6040516001600160a01b038316602482015260448101829052611ad290849063a9059cbb60e01b90606401611987565b505050565b600080546001600160a01b038381166001600160a01b0319831681178455604051919092169283917f8be0079c531659141344cd1fd0a4f28419497f9722a3daafe3b4186f6b6457e09190a35050565b6001600160a01b038116600090815260046020908152604080832060028452909152812054606490611b7a907f000000000000000000000000000000000000000000000000000000000000000090611fd5565b6105a29190611fb5565b6000611bd9826040518060400160405280602081526020017f5361666545524332303a206c6f772d6c6576656c2063616c6c206661696c6564815250856001600160a01b0316611c569092919063ffffffff16565b805190915015611ad25780806020019051810190611bf79190611efe565b611ad25760405162461bcd60e51b815260206004820152602a60248201527f5361666545524332303a204552433230206f7065726174696f6e20646964206e6044820152691bdd081cdd58d8d9595960b21b6064820152608401610740565b60606110bf848460008585600080866001600160a01b03168587604051611c7d9190611f4e565b60006040518083038185875af1925050503d8060008114611cba576040519150601f19603f3d011682016040523d82523d6000602084013e611cbf565b606091505b5091509150611cd087838387611cdb565b979650505050505050565b60608315611d47578251611d40576001600160a01b0385163b611d405760405162461bcd60e51b815260206004820152601d60248201527f416464726573733a2063616c6c20746f206e6f6e2d636f6e74726163740000006044820152606401610740565b50816110bf565b6110bf8383815115611d5c5781518083602001fd5b8060405162461bcd60e51b81526004016107409190611f6a565b80356001600160a01b038116811461064157600080fd5b60008083601f840112611d9e578182fd5b50813567ffffffffffffffff811115611db5578182fd5b6020830191508360208260051b8501011115611dd057600080fd5b9250929050565b600060208284031215611de8578081fd5b61186c82611d76565b600080600060608486031215611e05578182fd5b611e0e84611d76565b9250611e1c60208501611d76565b9150604084013590509250925092565b60008060408385031215611e3e578182fd5b611e4783611d76565b946020939093013593505050565b60008060208385031215611e67578182fd5b823567ffffffffffffffff811115611e7d578283fd5b611e8985828601611d8d565b90969095509350505050565b60008060008060408587031215611eaa578081fd5b843567ffffffffffffffff80821115611ec1578283fd5b611ecd88838901611d8d565b90965094506020870135915080821115611ee5578283fd5b50611ef287828801611d8d565b95989497509550505050565b600060208284031215611f0f578081fd5b8151801515811461186c578182fd5b600060208284031215611f2f578081fd5b5035919050565b600060208284031215611f47578081fd5b5051919050565b60008251611f6081846020870161200b565b9190910192915050565b6020815260008251806020840152611f8981604085016020870161200b565b601f01601f19169190910160400192915050565b60008219821115611fb057611fb0612052565b500190565b600082611fd057634e487b7160e01b81526012600452602481fd5b500490565b6000816000190483118215151615611fef57611fef612052565b500290565b60008282101561200657612006612052565b500390565b60005b8381101561202657818101518382015260200161200e565b838111156119be5750506000910152565b600060001982141561204b5761204b612052565b5060010190565b634e487b7160e01b600052601160045260246000fdfe05b8ccbb9d4d8fb16ea74ce3c29a41f1b461fbdaff4714a0d9a8eb05499746bca264697066735822122047f2e2cd4f900ce3f201070b56f391ccd0a88d6dbb1f4b17942a747e6bbea6ec64736f6c63430008040033",
  "linkReferences": {},
  "deployedLinkReferences": {}
}