{
  "_format": "hh-sol-artifact-1",
  "contractName": "FoxtrotPrivateSale",
  "sourceName": "contracts/FoxtrotPrivateSale.sol",
  "abi": [
    {
      "inputs": [
        {
          "internalType": "address",
          "name": "_companyVault",
          "type": "address"
        },
        {
          "internalType": "address",
          "name": "_busdContract",
          "type": "address"
        }
      ],
      "stateMutability": "nonpayable",
      "type": "constructor"
    },
    {
      "anonymous": false,
      "inputs": [
        {
          "indexed": false,
          "internalType": "address",
          "name": "tokenAddress",
          "type": "address"
        },
        {
          "indexed": false,
          "internalType": "uint256",
          "name": "tokenAmount",
          "type": "uint256"
        }
      ],
      "name": "ClaimToken",
      "type": "event"
    },
    {
      "anonymous": false,
      "inputs": [
        {
          "indexed": false,
          "internalType": "address",
          "name": "investor",
          "type": "address"
        },
        {
          "indexed": false,
          "internalType": "uint256",
          "name": "busdAmount",
          "type": "uint256"
        },
        {
          "indexed": false,
          "internalType": "uint256",
          "name": "tokenAmount",
          "type": "uint256"
        }
      ],
      "name": "Invest",
      "type": "event"
    },
    {
      "anonymous": false,
      "inputs": [
        {
          "indexed": true,
          "internalType": "address",
          "name": "previousOwner",
          "type": "address"
        },
        {
          "indexed": true,
          "internalType": "address",
          "name": "newOwner",
          "type": "address"
        }
      ],
      "name": "OwnershipTransferred",
      "type": "event"
    },
    {
      "inputs": [
        {
          "internalType": "address",
          "name": "from",
          "type": "address"
        }
      ],
      "name": "availableOf",
      "outputs": [
        {
          "internalType": "uint256",
          "name": "",
          "type": "uint256"
        }
      ],
      "stateMutability": "view",
      "type": "function"
    },
    {
      "inputs": [
        {
          "internalType": "address",
          "name": "token",
          "type": "address"
        }
      ],
      "name": "balance",
      "outputs": [
        {
          "internalType": "uint256",
          "name": "",
          "type": "uint256"
        }
      ],
      "stateMutability": "view",
      "type": "function"
    },
    {
      "inputs": [],
      "name": "busdContract",
      "outputs": [
        {
          "internalType": "address",
          "name": "",
          "type": "address"
        }
      ],
      "stateMutability": "view",
      "type": "function"
    },
    {
      "inputs": [],
      "name": "changeClaimStatus",
      "outputs": [
        {
          "internalType": "bool",
          "name": "",
          "type": "bool"
        }
      ],
      "stateMutability": "nonpayable",
      "type": "function"
    },
    {
      "inputs": [],
      "name": "claim",
      "outputs": [],
      "stateMutability": "nonpayable",
      "type": "function"
    },
    {
      "inputs": [],
      "name": "claimStartAt",
      "outputs": [
        {
          "internalType": "uint256",
          "name": "",
          "type": "uint256"
        }
      ],
      "stateMutability": "view",
      "type": "function"
    },
    {
      "inputs": [],
      "name": "companyVault",
      "outputs": [
        {
          "internalType": "address",
          "name": "",
          "type": "address"
        }
      ],
      "stateMutability": "view",
      "type": "function"
    },
    {
      "inputs": [
        {
          "internalType": "address",
          "name": "from",
          "type": "address"
        }
      ],
      "name": "getClaimableAmountOfTokens",
      "outputs": [
        {
          "internalType": "uint256",
          "name": "",
          "type": "uint256"
        }
      ],
      "stateMutability": "view",
      "type": "function"
    },
    {
      "inputs": [],
      "name": "getSaleEnd",
      "outputs": [
        {
          "internalType": "uint256",
          "name": "",
          "type": "uint256"
        }
      ],
      "stateMutability": "view",
      "type": "function"
    },
    {
      "inputs": [
        {
          "internalType": "uint256",
          "name": "amount",
          "type": "uint256"
        }
      ],
      "name": "invest",
      "outputs": [],
      "stateMutability": "nonpayable",
      "type": "function"
    },
    {
      "inputs": [
        {
          "internalType": "address",
          "name": "from",
          "type": "address"
        }
      ],
      "name": "investorAccounting",
      "outputs": [
        {
          "internalType": "uint256",
          "name": "total",
          "type": "uint256"
        },
        {
          "internalType": "uint256",
          "name": "claimed",
          "type": "uint256"
        },
        {
          "internalType": "uint256",
          "name": "locked",
          "type": "uint256"
        },
        {
          "internalType": "uint256",
          "name": "available",
          "type": "uint256"
        },
        {
          "internalType": "uint256",
          "name": "busd",
          "type": "uint256"
        }
      ],
      "stateMutability": "view",
      "type": "function"
    },
    {
      "inputs": [],
      "name": "isClaimEnabled",
      "outputs": [
        {
          "internalType": "bool",
          "name": "",
          "type": "bool"
        }
      ],
      "stateMutability": "view",
      "type": "function"
    },
    {
      "inputs": [
        {
          "internalType": "address",
          "name": "investor",
          "type": "address"
        }
      ],
      "name": "isElegibleForFirstClaim",
      "outputs": [
        {
          "internalType": "bool",
          "name": "",
          "type": "bool"
        }
      ],
      "stateMutability": "view",
      "type": "function"
    },
    {
      "inputs": [
        {
          "internalType": "address",
          "name": "to",
          "type": "address"
        },
        {
          "internalType": "uint256",
          "name": "amount",
          "type": "uint256"
        }
      ],
      "name": "manualInvest",
      "outputs": [],
      "stateMutability": "nonpayable",
      "type": "function"
    },
    {
      "inputs": [],
      "name": "owner",
      "outputs": [
        {
          "internalType": "address",
          "name": "",
          "type": "address"
        }
      ],
      "stateMutability": "view",
      "type": "function"
    },
    {
      "inputs": [],
      "name": "purgeNonSelledTokens",
      "outputs": [],
      "stateMutability": "nonpayable",
      "type": "function"
    },
    {
      "inputs": [],
      "name": "renounceOwnership",
      "outputs": [],
      "stateMutability": "nonpayable",
      "type": "function"
    },
    {
      "inputs": [
        {
          "internalType": "address",
          "name": "fxdToken",
          "type": "address"
        }
      ],
      "name": "setContractToken",
      "outputs": [
        {
          "internalType": "bool",
          "name": "",
          "type": "bool"
        }
      ],
      "stateMutability": "nonpayable",
      "type": "function"
    },
    {
      "inputs": [],
      "name": "setSaleEnd",
      "outputs": [
        {
          "internalType": "bool",
          "name": "",
          "type": "bool"
        }
      ],
      "stateMutability": "nonpayable",
      "type": "function"
    },
    {
      "inputs": [],
      "name": "tokenContract",
      "outputs": [
        {
          "internalType": "address",
          "name": "",
          "type": "address"
        }
      ],
      "stateMutability": "view",
      "type": "function"
    },
    {
      "inputs": [],
      "name": "totalBusdInvested",
      "outputs": [
        {
          "internalType": "uint256",
          "name": "",
          "type": "uint256"
        }
      ],
      "stateMutability": "view",
      "type": "function"
    },
    {
      "inputs": [
        {
          "internalType": "address",
          "name": "from",
          "type": "address"
        }
      ],
      "name": "totalBusdInvestedOf",
      "outputs": [
        {
          "internalType": "uint256",
          "name": "",
          "type": "uint256"
        }
      ],
      "stateMutability": "view",
      "type": "function"
    },
    {
      "inputs": [
        {
          "internalType": "address",
          "name": "from",
          "type": "address"
        }
      ],
      "name": "totalClaimedOf",
      "outputs": [
        {
          "internalType": "uint256",
          "name": "",
          "type": "uint256"
        }
      ],
      "stateMutability": "view",
      "type": "function"
    },
    {
      "inputs": [
        {
          "internalType": "address",
          "name": "from",
          "type": "address"
        }
      ],
      "name": "totalLockedOf",
      "outputs": [
        {
          "internalType": "uint256",
          "name": "",
          "type": "uint256"
        }
      ],
      "stateMutability": "view",
      "type": "function"
    },
    {
      "inputs": [
        {
          "internalType": "address",
          "name": "from",
          "type": "address"
        }
      ],
      "name": "totalOf",
      "outputs": [
        {
          "internalType": "uint256",
          "name": "",
          "type": "uint256"
        }
      ],
      "stateMutability": "view",
      "type": "function"
    },
    {
      "inputs": [
        {
          "internalType": "address",
          "name": "newOwner",
          "type": "address"
        }
      ],
      "name": "transferOwnership",
      "outputs": [],
      "stateMutability": "nonpayable",
      "type": "function"
    },
    {
      "inputs": [
        {
          "internalType": "address",
          "name": "token",
          "type": "address"
        },
        {
          "internalType": "address",
          "name": "receiver",
          "type": "address"
        },
        {
          "internalType": "uint256",
          "name": "amount",
          "type": "uint256"
        }
      ],
      "name": "withdraw",
      "outputs": [
        {
          "internalType": "bool",
          "name": "",
          "type": "bool"
        }
      ],
      "stateMutability": "nonpayable",
      "type": "function"
    }
  ],
  "bytecode": "0x61010060405260086080526276a70060a052666a94d74f43000060c0526802b5e3af16b188000060e0523480156200003657600080fd5b5060405162001bf938038062001bf983398101604081905262000059916200019e565b620000643362000131565b600680546001600160a01b03199081166001600160a01b039485161790915560048054821692909316919091179091556005805490911690556a0c72f62281f291ea4000006007556003602081905263634596087fa15bc60c955c405d20d9149c709e2460f1c2d9a497496a7f46004d1772c3054c556367094e887fc3a24b0501bd2c13a7e57f2db4369ec4c223447539fc0724a9d55ac4a06ebd4d556000526301da9c007fcbc4e5fb02c3d1de23a9f1e014b4d2ee5aeaea9505df5e855c9210bf472495af55620001d5565b600080546001600160a01b038381166001600160a01b0319831681178455604051919092169283917f8be0079c531659141344cd1fd0a4f28419497f9722a3daafe3b4186f6b6457e09190a35050565b80516001600160a01b03811681146200019957600080fd5b919050565b60008060408385031215620001b1578182fd5b620001bc8362000181565b9150620001cc6020840162000181565b90509250929050565b60805160a05160c05160e0516119d5620002246000396000818161069f01526106ee0152600081816106c0015281816107640152610e8201526000610e110152600061158601526119d56000f3fe608060405234801561001057600080fd5b50600436106101a95760003560e01c80638eaf1ee9116100f9578063d546da9011610097578063e3d670d711610071578063e3d670d714610394578063f2fde38b146103a7578063f30e5b26146103ba578063f835a686146103ce57600080fd5b8063d546da901461035b578063d6d789b71461036e578063d9caed121461038157600080fd5b8063b6bd83ef116100d3578063b6bd83ef1461031a578063c68643ed14610322578063c76fa9b114610335578063cf9d101c1461034857600080fd5b80638eaf1ee9146102e1578063912c2673146102f45780639f6c9fdc1461030757600080fd5b806355a373d611610166578063715018a611610140578063715018a614610288578063715f47e9146102905780638a77ba1a146102bd5780638da5cb5b146102d057600080fd5b806355a373d61461024c57806357e348e7146102775780635edce7841461028057600080fd5b806325083528146101ae5780632afcf480146101d657806345d92998146101eb5780634cc22f9d146102015780634e71d92d14610209578063554ab3d514610211575b600080fd5b6101c16101bc3660046117b2565b6103d6565b60405190151581526020015b60405180910390f35b6101e96101e4366004611850565b610404565b005b6101f3610851565b6040519081526020016101cd565b6101f361088b565b6101e9610897565b61022461021f3660046117b2565b610a46565b604080519586526020860194909452928401919091526060830152608082015260a0016101cd565b60055461025f906001600160a01b031681565b6040516001600160a01b0390911681526020016101cd565b6101f360085481565b6101e9610a8e565b6101e9610b2e565b6101c161029e3660046117b2565b6001600160a01b031660009081526001602052604090205460ff161590565b60065461025f906001600160a01b031681565b6000546001600160a01b031661025f565b6101f36102ef3660046117b2565b610b40565b6101f36103023660046117b2565b610d22565b6101f36103153660046117b2565b610d75565b6101c1610d95565b6101e9610330366004611807565b610e72565b6101f36103433660046117b2565b610f02565b60045461025f906001600160a01b031681565b6101f36103693660046117b2565b610f22565b6101f361037c3660046117b2565b610f33565b6101c161038f3660046117cc565b610f52565b6101f36103a23660046117b2565b611122565b6101e96103b53660046117b2565b61119c565b6006546101c190600160a01b900460ff1681565b6101c1611215565b60006103e061122b565b50600580546001600160a01b0319166001600160a01b03831617905560015b919050565b600480546040516370a0823160e01b8152339281019290925282916001600160a01b03909116906370a082319060240160206040518083038186803b15801561044c57600080fd5b505afa158015610460573d6000803e3d6000fd5b505050506040513d601f19601f820116820180604052508101906104849190611868565b10156104d05760405162461bcd60e51b81526020600482015260166024820152751196110e88125b9cdd59999a58da595b9d08109554d160521b60448201526064015b60405180910390fd5b60048054604051636eb1769f60e11b8152339281019290925230602483015282916001600160a01b039091169063dd62ed3e9060440160206040518083038186803b15801561051e57600080fd5b505afa158015610532573d6000803e3d6000fd5b505050506040513d601f19601f820116820180604052508101906105569190611868565b10156105a45760405162461bcd60e51b815260206004820152601a60248201527f4658443a204669727374206772616e7420616c6c6f77616e636500000000000060448201526064016104c7565b600160005260036020527fa15bc60c955c405d20d9149c709e2460f1c2d9a497496a7f46004d1772c3054c5442101561061f5760405162461bcd60e51b815260206004820152601d60248201527f4658443a20507269766174652053616c65206e6f74207374617274656400000060448201526064016104c7565b600260005260036020527fc3a24b0501bd2c13a7e57f2db4369ec4c223447539fc0724a9d55ac4a06ebd4d5442111561069a5760405162461bcd60e51b815260206004820152601760248201527f4658443a20507269766174652053616c6520656e64656400000000000000000060448201526064016104c7565b6106e47f00000000000000000000000000000000000000000000000000000000000000007f0000000000000000000000000000000000000000000000000000000000000000611285565b6007541061075c577f000000000000000000000000000000000000000000000000000000000000000081101561075c5760405162461bcd60e51b815260206004820152601b60248201527f4658443a204d696e696d756d20616d6f756e742035302042555344000000000060448201526064016104c7565b6000610788827f0000000000000000000000000000000000000000000000000000000000000000611285565b9050600060075411801561079e57508060075410155b6107e25760405162461bcd60e51b81526020600482015260156024820152744658443a205072697661746520636f6d706c65746560581b60448201526064016104c7565b6107ed3382846112a3565b60045460065461080c916001600160a01b039081169133911685611382565b60408051338152602081018490529081018290527f4ae4bd7655e0d350876a23cd90c4227b13db560e34435c6a488150a9c844bf5f9060600160405180910390a15050565b6000600381805b600381111561087757634e487b7160e01b600052602160045260246000fd5b815260200190815260200160002054905090565b60006003816002610858565b600654600160a01b900460ff166108f05760405162461bcd60e51b815260206004820152601a60248201527f4658443a20436c61696d2073746174757320696e61637469766500000000000060448201526064016104c7565b336000908152600260209081526040808320600184529091529020546109585760405162461bcd60e51b815260206004820181905260248201527f4658443a20416c726561647920636c61696d656420796f757220746f6b656e7360448201526064016104c7565b3360009081526001602052604090205460ff16156109d857600080526003602052600080516020611980833981519152544210156109d85760405162461bcd60e51b815260206004820152601f60248201527f4658443a2043616e277420636c61696d2c203930206461797320636c6966660060448201526064016104c7565b60006109e3336113f3565b6005549091506109fd906001600160a01b031633836114d4565b600554604080516001600160a01b039092168252602082018390527f5d425a3a6a3d5a60fbf147dc6659ce3dfeb701fc44fe90058c32783b8807c574910160405180910390a150565b6000806000806000610a5786610d22565b9450610a6286610f33565b9350610a6d86610d75565b9250610a7886610b40565b9150610a8386610f02565b905091939590929450565b610a9661122b565b600260005260036020527fc3a24b0501bd2c13a7e57f2db4369ec4c223447539fc0724a9d55ac4a06ebd4d54421015610b115760405162461bcd60e51b815260206004820181905260248201527f4658443a20507269766174652073616c65206973207374696c6c20616c69766560448201526064016104c7565b600554600754610b2c916001600160a01b03169081906114d4565b565b610b3661122b565b610b2c6000611509565b600080610b4c83611559565b9050610b71836001600160a01b031660009081526001602052604090205460ff161590565b8015610b865750600654600160a01b900460ff165b8015610ba957506000805260036020526000805160206119808339815191525415155b15610bb45792915050565b60008052600360205260008051602061198083398151915254421080610bf0575060008052600360205260008051602061198083398151915254155b15610bfe5750600092915050565b60036020527fcbc4e5fb02c3d1de23a9f1e014b4d2ee5aeaea9505df5e855c9210bf472495af546000805260008051602061198083398151915254610c4391906118cf565b4210610c725750506001600160a01b031660009081526002602090815260408083206001845290915290205490565b600081610c7e85610f33565b610c889190611926565b60036020527fcbc4e5fb02c3d1de23a9f1e014b4d2ee5aeaea9505df5e855c9210bf472495af546000805260008051602061198083398151915254610ccd9042611926565b6001600160a01b0387166000908152600260208181526040808420928452919052902054610cfc908690611926565b610d069190611907565b610d1091906118e7565b610d1a9190611926565b949350505050565b6001600160a01b038116600090815260026020819052604082209082905b6003811115610d5f57634e487b7160e01b600052602160045260246000fd5b8152602001908152602001600020549050919050565b6001600160a01b0381166000908152600260205260408120816001610d40565b6000610d9f61122b565b600654600160a01b900460ff1615610df95760405162461bcd60e51b815260206004820152601a60248201527f4658443a20436c61696d20616c726561647920656e61626c656400000000000060448201526064016104c7565b6006805460ff60a01b1916600160a01b179055610e367f0000000000000000000000000000000000000000000000000000000000000000426118cf565b60036000805b6003811115610e5b57634e487b7160e01b600052602160045260246000fd5b815260208101919091526040016000205550600190565b610e7a61122b565b6000610ea6827f0000000000000000000000000000000000000000000000000000000000000000611285565b9050610eb38382846112a3565b604080516001600160a01b0385168152602081018490529081018290527f4ae4bd7655e0d350876a23cd90c4227b13db560e34435c6a488150a9c844bf5f9060600160405180910390a1505050565b6001600160a01b0381166000908152600260205260408120816003610d40565b6000610f2d82610b40565b92915050565b6001600160a01b03811660009081526002602052604081208180610d40565b6000610f5c61122b565b6005546001600160a01b0385811691161415610fc95760405162461bcd60e51b815260206004820152602660248201527f4658443a20596f752063616e277420776974686472617720466f7874726f7420604482015265546f6b656e7360d01b60648201526084016104c7565b6040516370a0823160e01b8152306004820152849083906001600160a01b038316906370a082319060240160206040518083038186803b15801561100c57600080fd5b505afa158015611020573d6000803e3d6000fd5b505050506040513d601f19601f820116820180604052508101906110449190611868565b10156110925760405162461bcd60e51b815260206004820152601860248201527f4658443a20496e73756666696369656e7420616d6f756e74000000000000000060448201526064016104c7565b60405163a9059cbb60e01b81526001600160a01b0385811660048301526024820185905282169063a9059cbb90604401602060405180830381600087803b1580156110dc57600080fd5b505af11580156110f0573d6000803e3d6000fd5b505050506040513d601f19601f820116820180604052508101906111149190611830565b5060019150505b9392505050565b6040516370a0823160e01b81523060048201526000906001600160a01b038316906370a082319060240160206040518083038186803b15801561116457600080fd5b505afa158015611178573d6000803e3d6000fd5b505050506040513d601f19601f82011682018060405250810190610f2d9190611868565b6111a461122b565b6001600160a01b0381166112095760405162461bcd60e51b815260206004820152602660248201527f4f776e61626c653a206e6577206f776e657220697320746865207a65726f206160448201526564647265737360d01b60648201526084016104c7565b61121281611509565b50565b600061121f61122b565b42600360006002610e3c565b6000546001600160a01b03163314610b2c5760405162461bcd60e51b815260206004820181905260248201527f4f776e61626c653a2063616c6c6572206973206e6f7420746865206f776e657260448201526064016104c7565b600061129182846118e7565b61111b90670de0b6b3a7640000611907565b81600760008282546112b59190611926565b9250508190555080600860008282546112ce91906118cf565b90915550506001600160a01b038316600090815260026020908152604080832060038452909152812080548392906113079084906118cf565b90915550506001600160a01b038316600090815260026020908152604080832060018452909152812080548492906113409084906118cf565b90915550506001600160a01b0383166000908152600260208181526040808420928452919052812080548492906113789084906118cf565b9091555050505050565b6040516001600160a01b03808516602483015283166044820152606481018290526113ed9085906323b872dd60e01b906084015b60408051601f198184030181529190526020810180516001600160e01b03166001600160e01b0319909316929092179091526115b5565b50505050565b6000806113ff83610b40565b9050611424836001600160a01b031660009081526001602052604090205460ff161590565b80156114395750600654600160a01b900460ff165b1561145c57336000908152600160208190526040909120805460ff191690911790555b6001600160a01b03831660009081526002602090815260408083206001845290915281208054839290611490908490611926565b90915550506001600160a01b0383166000908152600260209081526040808320838052909152812080548392906114c89084906118cf565b90915550909392505050565b6040516001600160a01b03831660248201526044810182905261150490849063a9059cbb60e01b906064016113b6565b505050565b600080546001600160a01b038381166001600160a01b0319831681178455604051919092169283917f8be0079c531659141344cd1fd0a4f28419497f9722a3daafe3b4186f6b6457e09190a35050565b6001600160a01b03811660009081526002602081815260408084209284529190528120546064906115ab907f000000000000000000000000000000000000000000000000000000000000000090611907565b610f2d91906118e7565b600061160a826040518060400160405280602081526020017f5361666545524332303a206c6f772d6c6576656c2063616c6c206661696c6564815250856001600160a01b03166116879092919063ffffffff16565b80519091501561150457808060200190518101906116289190611830565b6115045760405162461bcd60e51b815260206004820152602a60248201527f5361666545524332303a204552433230206f7065726174696f6e20646964206e6044820152691bdd081cdd58d8d9595960b21b60648201526084016104c7565b6060610d1a8484600085856001600160a01b0385163b6116e95760405162461bcd60e51b815260206004820152601d60248201527f416464726573733a2063616c6c20746f206e6f6e2d636f6e747261637400000060448201526064016104c7565b600080866001600160a01b031685876040516117059190611880565b60006040518083038185875af1925050503d8060008114611742576040519150601f19603f3d011682016040523d82523d6000602084013e611747565b606091505b5091509150611757828286611762565b979650505050505050565b6060831561177157508161111b565b8251156117815782518084602001fd5b8160405162461bcd60e51b81526004016104c7919061189c565b80356001600160a01b03811681146103ff57600080fd5b6000602082840312156117c3578081fd5b61111b8261179b565b6000806000606084860312156117e0578182fd5b6117e98461179b565b92506117f76020850161179b565b9150604084013590509250925092565b60008060408385031215611819578182fd5b6118228361179b565b946020939093013593505050565b600060208284031215611841578081fd5b8151801515811461111b578182fd5b600060208284031215611861578081fd5b5035919050565b600060208284031215611879578081fd5b5051919050565b6000825161189281846020870161193d565b9190910192915050565b60208152600082518060208401526118bb81604085016020870161193d565b601f01601f19169190910160400192915050565b600082198211156118e2576118e2611969565b500190565b60008261190257634e487b7160e01b81526012600452602481fd5b500490565b600081600019048311821515161561192157611921611969565b500290565b60008282101561193857611938611969565b500390565b60005b83811015611958578181015183820152602001611940565b838111156113ed5750506000910152565b634e487b7160e01b600052601160045260246000fdfe3617319a054d772f909f7c479a2cebe5066e836a939412e32403c99029b92effa2646970667358221220762a1e17ca4937dfdfefe0b922196e7bae4148e921af958d721fbfe97b0471bb64736f6c63430008040033",
  "linkReferences": {},
  "deployedLinkReferences": {}
}